S00C00006D61696E2E7372656373
S11300000C942A000C9447000C9447000C9447006D
S11300100C946F000C9447000C9447000C94470018
S11300200C9447000C9447000C9447000C94470030
S11300300C9447000C9447000C9447000C94470020
S11300400C9447000C9447000C9447000C94470010
S11300500C94470011241FBECFE5D4E0DEBFCDBF12
S113006010E0A0E6B0E0E6E6F2E002C005900D92F2
S1130070A236B107D9F720E0A2E6B0E001C01D9294
S1130080A636B207E1F70E9449000C9431010C94A2
S113009000008AB38C6F8ABB8BB38BBB17BA8AE21E
S11300A081BB12BA12BC85B5876085BD86E084BD6C
S11300B013BC8FB582688FBD8EB589618EBD1DBCA2
S11300C01CBC8EE387BD8FE786BD1BBC1ABC89B7F9
S11300D0816489BF14BE80E48ABF7894FFCF1F92E5
S11300E00F920FB60F9211242F933F938F939F93E8
S11300F015BC8091620090916300059708F49CC040
S11301001092630010926200B1992EC082B38230C3
S113011059F58FE097E20197F1F700C00000B1991B
S11301207FC082B3823009F07BC0B19903C082B32F
S11301308230D9F320916000309161008091640095
S113014090916500820F931F8F372EE3920728F456
S1130150909365008093640063C08FE79EE390935F
S11301606500809364005CC0B2993CC082B3823065
S1130170C9F580916400909165008C3D954058F1DB
S11301808FE097E20197F1F700C00000B29948C0F0
S113019082B3823009F044C0B29903C082B3823082
S11301A0D9F38091640090916500209160003091B2
S11301B06100821B930B853F21E0920728F0909306
S11301C06500809364002CC08CED95E090936500ED
S11301D08093640025C08CED95E090936500809336
S11301E064001EC0B0991CC08FE097E20197F1F73C
S11301F000C00000B09914C0B09BFECF92B382E05F
S1130200892782BB82B3811105C0109265001092C8
S1130210640006C08CED95E09093650080936400C3
S1130220809165008BBD21E0809164009091650010
S1130230892B09F420E02ABD80916200909163002B
S11302400196909363008093620014BC87E085BD9F
S11302509F918F913F912F910F900FBE0F901F9000
S10902601895F894FFCF8D
S1050266DC05B1
S9030000FC
